:100000009FC3B9C3B8C3B7C3B6C3B5C3B4C3B3C33F
:10001000B2C3B1C3B0C3AFC3AEC3ADC3ACC30003BF
:100020000C0F30333C3FC0C3CCCFF0F3FCFF454E48
:1000300054455200594F5552004E414D455E5F6048
:10004000000031300000000000000000003C3D3E98
:10005000000032300000000000000000005B5C5D2A
:1000600000003430000000000000000000613A3B56
:1000700000003F3F4E455700484953434F524540CB
:100080005B5C5D3C3D3E5B5C5D5E5F60613A3B009E
:1000900000000047414D45004F564552003C3D3E53
:1000A0005E5F60003155500000000000000000005D
:1000B00000613A3B5B5C5D5E5F603C3D3E5B5C5D6E
:1000C0000000000000000202020202020404040414
:1000D00004040404040404040404040404040402E2
:1000E00000000204040200000204040404040404E6
:1000F000FF00000000FF02020202020204040404E6
:100100000404FF04040404FF00FF0000FF0002FFDA
:100110000202FF0204FF0404FF0404FF0404FF04BE
:10012000FFFF0202FFFF00020202020002040202BD
:10013000040202FFFFFFFF0204040404040402029D
:1001400002020202000000000000000000000000A7
:10015000FF00000000FF02FFFFFFFF0204FFFFFFA0
:10016000FF04FF04040404FF04FF04FF04FFFF0472
:10017000FF04FF0404FF04FF04FFFF04FF04FF0467
:10018000FFFF0000FFFF0202040402020202040457
:100190000202FFFF0000FFFF000004040202000053
:1001A000040402020000040402020000040402022B
:1001B0003C221E00003E00003A2A2E00222A3E0069
:1001C0000E083C002E2A3A003E28380002320E006B
:1001D0003E2A3E000E0A3E001E16161E143C181043
:1001E00070187DB6BC3C3CBCB67D1870022A0E006F
:1001F000002E00003C0A3C003E2A14001C22220073
:100200003E221C003E2A22003E0A02001C2232002E
:100210003E083E00003E000030201E003E08360032
:100220003E2020003E0C3E003E1C3E001C221C00D6
:100230003E0A04001C223C003E0A3400242A12001C
:10024000023E02003E203E001E301E003E183E00D0
:10025000360836000E380E00322A2600000058BC40
:10026000163F3F16BC5800009C9E5E76375F5F3796
:10027000765E9E9C10183C14F00F00000058BC16CF
:100280003F3F16BC58000000000000985CB65F5F5E
:10029000B65C980000000070187DB6BC3C3CBCB653
:1002A0007D187000001EB87D363C3C3C3C367DB865
:1002B0001E00009C9E5E76375F5F37765E9E9C00D8
:1002C000001C5EFEB6375F5F37B6FE5E1C00004066
:1002D00060F0507858587850F0604000004060D08E
:1002E000705878785870D0604000000000000024FA
:1002F00018182400000000000000008100241818D5
:100300002400810000000000248118245A5A241877
:1003100081240000420024814A3CA4253C4A8124D7
:10032000004270787878787E7F7E7878787870541C
:10033000D1B4783CF034F88078EAE07480C0800072
:100340000080C080000080C08000004C4556454CB5
:10035000315550A00280C043E04AF001E042C001A4
:10036000E049F042E04CF042E049F001E042C001D7
:10037000E045F042E002C0809E9C03789C1E4C1F2A
:10038000013FC7451FDC463FC7423F053E3C38B0F2
:1003900060989D03010206430401FC8544FCC303ED
:1003A0007F1FFF4504C74507010F4607420F021F85
:1003B0007FC601FC840D01FF7F3F1F07804020188E
:1003C0000E030199A303037C808302037FC3021FF2
:1003D00003820207F8840107C2010FC2017F84046F
:1003E000807E077FC3017E830180C7017E8405C0B4
:1003F00030180603A00600C0E0F0F8FC47FE01FC40
:1004000046FE03FCF0EE4AFE01FC42F802FEFF4508
:10041000C0C201E142C043F801FF45C0C201F0C2C1
:1004200045C001FF43F8C344C002FFF8C203DFC761
:10043000C143C003F8F6E148F846FE03FCF0E04291
:10044000F001F842FC48FE01F842E001C0830907D0
:100450000F79E1C101030F3FC207F9C383070F1FE3
:100460007FC202F3834303013FC202FBC342030383
:10047000070F7FC301E144010103C54403440101A7
:100480000FC5450344F342030107420FC44403016F
:100490008347F3C3021F034201018142F142F34447
:1004A00003018FC3027F1F420F0587E3F3F131433E
:1004B000010381E77E841003071C38E08003071FD7
:1004C0007FFEF0E0800001420702CE808302073FFA
:1004D000C20AFCF0C000030F3FFFF88083013FC455
:1004E0008403FEFCE0820103C584C3010F8401F88C
:1004F000C2010F8401C045CFC3033F0701820780BB
:100500009E9F1F0F61E042F001FCC202EF83438017
:1005100007981E1F1E1FF6E643060307010006701C
:10052000807000800042A81FF9030F1C70E08183D7
:100530008FBFFEF8E080818F9FFEDC30E0C0839F9C
:10054000FFCF1F7CE0C08142834480C2020FFF4482
:100550008001F3421301F04380019FC3438001BC3B
:1005600043BF428003C0E07FC20187448001BE4494
:10057000BFC3029F83428002F0FEC2088F8180E0E9
:10058000F03EFFDF43870197429F09DFC7E16038F4
:100590001C0E030186C201FDD101FDCC0C3F5F1F83
:1005A000CF2FC7BFE77FEFFFBFCF01FBCE01F7CF54
:1005B000017FCD017FD001F7C5CE01FECA01FDC686
:1005C00011C014E9F6BDEFFDFFFDFFBFFFD77FDFD0
:1005D000BFF6D0017FE201BFCC01DFC801BFC5CCAF
:1005E00001EFD50AFEFFFDF7FFF7FFF7FFFDC201A0
:1005F000FDDB1CBF7F1FBF0F478F23479343B54BC6
:10060000A3DBA5DBB3E75BF7AFF76FFFDFFF5FCAE5
:1006100001BFCFD501DFCC01EFD501BFCB2A9F0FA2
:100620004315025004A218E20CF20CF3ACDAF5BA4E
:10063000ED7AEFDABFF6FFEFFDF77FFFEDFF7FFB0F
:10064000BFFEDF7DF7DFFFBFC301BFCE02FFFED1DC
:1006500001BFC401AFC401BFE424112408520055F6
:1006600028C31CD1B64DFA57FDD76EFBEE77DFF5E8
:10067000DFFBFDBFFAFFFDFFFD7FFEBFFFDFC30114
:10068000BFC302FEABCA01FDC6CE01FEC20FF7FF1B
:10069000F7FFB6D5F780F7D5B6FFF7FFF7E119F604
:1006A00048A11449A659A5BA6BDE75FFDB7FEDFFA3
:1006B000F7FFFD7FFFFDFFFEC411DFFBFFBFF7DF8C
:1006C000FBBF6DDFFFB77FFF57BED5C6017FC801F7
:1006D000BFC1C701FDCB01FEC402FAEFC301FED3C7
:1006E00001FDD110FEE9D46B9679D7BDD7FDEFBDE2
:1006F000F7DFFFEEC401EFC312FBEEFF77FDFFDF74
:10070000F6EF7DEBFF56BDCBF5F6FDD3C601EFCF7F
:1007100001FBDA017FCA01EFCB1FFDFEFFFAF7FDF7
:10072000EFF7DEEFFFBFEEFFDFBFFFDFFEBFFFAF84
:10073000FFDFFBFFF6FFFBFFFCC701FEC601FBCAA4
:1007400011241FBECFE5D2E0DEBFCDBF10E0A0E692
:10075000B0E0E2E7FFE102C005900D92A237B107D9
:10076000D9F721E0A2E7B0E001C01D92A438B2079A
:10077000E1F78FD5FCCB44CCE9E4F1E080E0919146
:100780009F3F19F096300CF48F5F91E0E136F90746
:10079000B1F780937D0186958695869580937B0140
:1007A00008951F93CF93DF939DEE960F6C57E5E46A
:1007B000F1E0C0E8D0E041E050E0455451409830CD
:1007C000F0F49E01092E02C0359527950A94E2F7B0
:1007D000DF01A554B14072A1172F122381F0AB5B4A
:1007E000BE4F2095272392962C93811103C08FEF43
:1007F00080936E0181E0DF91CF911F91089528EFE2
:10080000290F283070F4DE0102C0B595A7952A950E
:10081000E2F79D01DA01AE0FBF1F73A1172F12235C
:10082000F1F6935232969613CACF80E0E4CF8F77D9
:1008300087B987B187B9369A3699FECF84B195B119
:10084000089590E0A62FB0E0B595A79574E0AA0FA3
:10085000BB1F7A95E1F79C01E3E035952795EA9572
:10086000E1F7AF57BF4FA20FB31F2C91222319F10D
:10087000E22FEF77E053FF0BEE0FFF1FEE0FFF1F8E
:100880009595879583709927E80FF91FE055FE4FDE
:10089000E49160FD09C0EF70F0E0E25EFF4F8491EB
:1008A00027FF0AC080950895F0E084E0F595E7956C
:1008B0008A95E1F7F2CF80E0089520E630E0F90173
:1008C0002E5F3F4F4081518184179507C0F30097F9
:1008D00011F4E8E6F0E0DB014191519120E3841747
:1008E000950720F02F5F841B950BF9CF2D93208166
:1008F0003181232B89F70895209178003091790078
:10090000820F931F9093790080937800089580E878
:1009100091E00895EEE7F1E080E09191890F91E098
:10092000E438F907D0F3089580917E0190917F011A
:10093000089590937F0180937E010895F5DF2091C3
:100940007800309179008217930720F4C901F1DF14
:1009500081E0089580E00895809178009091790079
:10096000089528E0C29887FDC09A87FFC098C29A70
:10097000880F2A95B9F7C298C09AB898C29AC298B7
:10098000B89AC0980895C09AC29AC098C29808951B
:10099000FF920F931F93CF93DF9310928301BADFDF
:1009A0009AE2981B909383010EE711E0C0E8D0E033
:1009B000F801F1908F01CE01F5D8F81619F06F2DDE
:1009C000CE01F8D82196F1E004381F0788F3DF91B3
:1009D000CF911F910F91FF9008950F931F93CF9385
:1009E000DF93CEE7D1E000E810E0C801DBD88993BF
:1009F0000F5F1F4F81E0C438D807B8F3DF91CF9164
:100A00001F910F910895E9DF85DF8A3271F010920E
:100A10007F0110927E0143E050E06FE370E080E8D8
:100A200091E09EDA10928301B3CF08954EE150E039
:100A30006FEF70E089E491E093DAE7E6F1E086E0B9
:100A4000DF011D928A95E9F7E5E4F1E088E880830B
:100A50008FEF81A780E18283838388E38093800086
:100A60000895E1E8F0E080E4DF011D928A95E9F75E
:100A7000089586B38695817090E00895815028F09E
:100A800095E09A95F1F70000F9CF08950F931F9321
:100A9000CF93DF93182F062FC0E0D82FD0951111D8
:100AA000C49A8D2FEBDFC4988D2FE8DFCF5F0C1336
:100AB000F6CFDF91CF911F910F9108956DE784E6F6
:100AC000E5DF6DE782E3E2CF50E090E08F579F4F84
:100AD00060C82F923F924F925F926F927F928F9257
:100AE0009F92AF92BF92CF92DF92EF92FF920F93BD
:100AF0001F93CF93DF93C82EA5E94A2EA5E05A2E67
:100B0000882321F0F3E54F2EF3E05F2E17DF90915D
:100B10004401892B80934401C1102BC0A2DF43E024
:100B200060E573E080E0D0DFF2DEFC0193E0A7E94E
:100B3000B0E001900D929A95E1F7809144018823ED
:100B400029F043E060E573E086E1BEDF05DF65E89C
:100B500070E0B3DEE9DE6BE970E0AFDE45E06BE448
:100B600073E084E2B1DF809143016BEA70E090E0D2
:100B7000A4DE809180006EE0C0D9282F80917F0094
:100B8000882361F090917E009C5F9F7790937E0018
:100B9000992311F0943411F410927F0080917E001B
:100BA0008C5C820F8F7780936D01ECEF9E2E312C41
:100BB000212CD0E040E863EC70E0C2014FD32C015F
:100BC000E2DE88E7CEDE80E0CCDE8D2F806BC9DEF2
:100BD00080E0C7DE80E1C5DEC098C29AC09AD3DE4D
:100BE00088E7BFDE80E4BDDE10E000E0D02E0038F4
:100BF000110509F4E7C2C110D8C22091C200211129
:100C00004CC1D630E9F43DEE300FE0E0383008F06A
:100C100023C1F0E0EB5BFE4F42A180E890E0032EA1
:100C200002C0959587950A94E2F7842349F0313004
:100C300009F435C108F429C1383008F026C12FE085
:100C4000E0916D01ED0DEF77F0E0ED53FF4F808007
:100C5000809480917D0090E065E070E03DD901973F
:100C6000A801481B590BCA01181619060CF419C122
:100C7000D73009F016C1F801E45CFC4F64902829D4
:100C800080918000F801E81BF109ED30F10508F0D2
:100C900013C1D73009F010C180917C00811103C1CC
:100CA000EE5DFC4F8490622A80914501883809F4FA
:100CB00005C1D11103C1082E000C990B08171907A3
:100CC0000CF4FCC0B8016E507109861797070CF43C
:100CD000F5C0F801E81BF90B8091460190E06EE049
:100CE00070E0FAD8E80FF91FE253FD4F44916828ED
:100CF00080907801E82C082C000CFF080E151F05C9
:100D00000CF0DEC0C0E0642A80916F01D8121AC2D4
:100D100020916E01822F022E000C990B28163906A5
:100D200009F010C227FD0EC29091700181E091116F
:100D300080E080937001911103C0215020936E01D7
:100D40000E151F050CF4BBC197012C5A3F4F2017FD
:100D500031070CF4B4C1A0906E01AA0CBB0890E05E
:100D60000196A80EB91EA501440F551F440F551F2B
:100D70008091790190E09C0173E0220F331F7A95F6
:100D8000E1F7421753070CF49AC1205E3F4F241736
:100D900035070CF494C1880F991FA81AB90AB50138
:100DA000B7FE02C06F5F7F4F75956795072E000CE9
:100DB000880B990BFCD75FEFA516B5060CF460C144
:100DC00020E030E040E05FE35BD7BED7A62EC8014D
:100DD0008E199F097C016EE070E09BD8072E000CF5
:100DE000880B990BE4D720E030E040E05FE3A3EF0D
:100DF000EA16AFEFFA060CF449C142D7A5D7A7FC13
:100E000028C266300CF05BC1B3E0BA150CF457C1D0
:100E10000A2C000CBB0867FD60E0E62E660FFF0899
:100E2000C50166E070E058D88B5B9E4FFC01EE0D6B
:100E3000FF1D7480E5E0E71508F441C16AE082E334
:100E400025DEF1E0F71508F423C18AE090E054DDD7
:100E50008AE090E051DD20C148EF430F4830B8F4FC
:100E6000EF5FF0E0EB5BFE4F32A180E890E0042EF4
:100E700002C0959587950A94E2F7832309F4E0CEA2
:100E8000463069F0473009F0DACE20EFD9CE335240
:100E9000EE5FE63009F0BACED3CE20E0D1CE2CEF13
:100EA000CFCE612CECCE8091460190E06CE070E0FA
:100EB00013D8E80FF91FF4CE812CF5CE40E017CF00
:100EC00020917901D21708F41DCFC8018E199F090E
:100ED0006EE070E01ED8DB01609373018D2F821BE2
:100EE00080937401663008F00DCF853008F00ACF8A
:100EF00070907A0171102CC090E066E070E0ECD741
:100F00008B5B9E4FA80FB91F14969C9198306CF480
:100F1000809171016EE0D7D7382F97FDF3CEED2D7C
:100F2000E819EE3020F0EE50FCCF30E0F8CF892FFA
:100F3000990F990B6EE070E0CFD7E80FF92FF11DF4
:100F4000E30FF11D37FDFA95E658FD4FC491DBCE56
:100F500081112AC0AB5BBE4F14969C9198306CF403
:100F6000809171016EE0AFD7282F97FDCBCEED2D8C
:100F7000E819EE3020F0EE50FCCF20E0F8CF892FBA
:100F8000990F990B6EE070E0A7D7E80FF92FF11DCC
:100F9000E20FF11D27FDFA95E658FD4FC49101C0FF
:100FA000CC0F7A94EAF7AFCEA82EB12CC5010197E9
:100FB00066E070E091D78B5B9E4FFC01EA0FFB1F50
:100FC000948198304CF4809171016EE07CD7382F79
:100FD00097FF03C020E022C030E0ED2DE819EE308D
:100FE00010F0EE50FCCF892F990F990B6EE070E056
:100FF00073D7E80FF92FF11DE30FF11D37FDFA95B7
:10100000E658FD4FE4912E2F30E088E090E08719FC
:10101000910902C0359527958A95E2F7C50166E0EA
:1010200070E05AD78B5B9E4FA80FB91F14969C9106
:1010300098304CF4809171016EE045D7382F97FFBE
:1010400003C0C0E01BC030E0ED2DE819EE3010F019
:10105000EE50FCCF892F990F990B6EE070E03CD7D2
:10106000E80FF92FF11DE30FF11D37FDFA95E65852
:10107000FD4FC49101C0CC0F7A94EAF7C22B43CE46
:1010800020E030E040E05FE3FAD59FCEF8D5B6CE61
:1010900023E0271508F0DCCE8AE090E02DDCC501C6
:1010A00066E070E019D78B5B9E4F8E0D9F1DE8E0C8
:1010B000DC011496EC93FFEFF0936E015DDB809101
:1010C0006E01811125C020916F0130E080914501B2
:1010D000082E000C990B28173907D4F00E968217AA
:1010E0009307B4F0FF24F39461E08F2DCFDCF394E9
:1010F00024E6F212F9CF80917D00833000F58F5FF6
:1011000080937D0082E390E0F7DB48E8409345015F
:10111000E0917001F0E0E858FD4F94914C2F462982
:1011200080914801282F26952D130EC0209147014C
:10113000D2120AC03FE080FF08C030EF06C086E947
:1011400090E0E2CF90E0EACF30E0E42FE92B4E2FA1
:10115000432BE0E0D11117C0F801F595E795F5951F
:10116000E795EF57FF4FE081EE2369F0E053FF0B67
:10117000EE0FFF1FEE0FFF1F8D2D8370E80FF11D87
:10118000E055FE4FE491C42FCE2B8091C1008823FF
:1011900039F051E0591520F06D2F8D2D52DBC82B01
:1011A0008C2FDFDB0F5F1F4F21CD81E0C81205C000
:1011B000F801ED53FF4FC081F3CF6D2F802F41DB3E
:1011C000C82FEECFC1100CC08091C200811108C0A1
:1011D00080916E01863021F460916F0180E0E1DA48
:1011E000C098C29AC09ADF5F9FEF291A390A939478
:1011F000D83009F0DFCCC11019C0209179013091AD
:10120000750185E090E0831B91092817190674F099
:101210008091C200813051F0E7E6F1E086E0DF0125
:101220001D928A95E9F781E08093C200DF91CF910A
:101230001F910F91FF90EF90DF90CF90BF90AF90F4
:101240009F908F907F906F905F904F903F902F90E6
:101250000895A12C66300CF4DBCD31CFFC01DB010D
:101260008591382F307C61F0912D303819F09A95A6
:1012700008F49591831B481B9D938150E9F705C0A5
:10128000481B95919D938150E1F74111E9CFCF0122
:10129000089583E08ABD83BF789480E48CBD8FEF8E
:1012A0008DBD87EC80BF87E886B987B3857D87BB16
:1012B000BC9ABA9AB89AC29AC09A8FE39CE90197ED
:1012C000F1F700C000005FDB88E74BDB80E049DB23
:1012D0008EEA47DB85ED45DB80E843DB88EA41DBCE
:1012E0008FE33FDB83ED3DDB80E03BDB80E439DBFC
:1012F0008DE837DB84E135DB81EA33DB88EC31DBF9
:101300008AED2FDB82E12DDB81E82BDB8FEC29DB03
:1013100089ED27DB81EF25DB8BED23DB80E421DB0F
:1013200080E21FDB80E01DDB8FEA1BDBC098C29AE6
:10133000C09AAFE3BCE91197F1F700C0000063DB8E
:101340001092440132E0732E46E0242E312C412CC1
:10135000512C87DB80914401882309F44DC14CE076
:1013600064E770E082E0B0DB4FE06EE270E080E2C4
:10137000ABDBDADA67E970E0A0DAC9DA5C014C01CC
:10138000B3E08B0E911C21E8C22E20E0D22EEC019E
:101390008C169D0609F448C083E0F501A8EBB0E087
:1013A00001900D928A95E1F7688080E840DA845FC9
:1013B00091407C0183E83BDA8C01045F1140EAEF45
:1013C000EE16F10418F00A3F110538F46394FAE5BB
:1013D000F61510F49FE3692E71DB2AEFE21AF1088B
:1013E00088ECE816F10428F00A5F1109083C1105A1
:1013F00038F46A949EE3961510F08AE5682E5EDB59
:101400006882862D8068D601D7968C9382E061DB56
:1014100030DB892B49F652DB2CDB892BE9F3219653
:10142000BFEFCB1ADB0AB4CFB3DA109244011092AB
:101430006C00109279001092780083E080937D0018
:1014400010927B0081E08093430110927F00109204
:10145000C10010927E00EADAD0E003DBC1E0CD0FDC
:1014600081E0D43148F0C33208F0DEC047E36DE3D9
:1014700070E085E029DB82E02CDBFBDA892B09F0C8
:10148000F1C01CDB66246A94D1DAC1E0C093C100CC
:1014900080E01FDB1092C100BFEFE3EDF0E3B1503D
:1014A000E040F040E1F700C000001092C20010924E
:1014B0007A0088E180937D01E5E4F1E088E3DF01D3
:1014C0001D928A95E9F780917B00082E000C990BFC
:1014D00068E170E001D5BC0160547F4F48E150E005
:1014E00089E491E056D346E050E06FEF7FEF81E66C
:1014F00091E036D546E050E06FEF70E087E691E08E
:101500002FD580E1809347018093480188E880933C
:10151000450160926E0183E08093750184E18093C0
:10152000780180917B00843008F4A7C0C0937901D2
:1015300088E080937B0181E080937C0110927F00A2
:101540001BD988E380938000C6E310927C00D0E032
:101550000FE711E080917D0181119CC06FEF8EE655
:1015600095DABFEFE3EFF1E0B150E040F040E1F792
:1015700000C000006FEF82E889DA2FEF83EF91E07F
:10158000215080409040E1F700C000006FEF84E6FA
:101590007DDAAFEFB3EFE1E0A150B040E040E1F71A
:1015A00000C000006BE981E071DAFFEF29EF80E015
:1015B000F15020408040E1F700C000006FEF8CE365
:1015C00065DA6FEF8CE362DA31DA81E080937F00D5
:1015D000809143018F5F8093430180917B0089302C
:1015E00018F48F5F80937B0080917F00882309F43B
:1015F00047C080E06EDAF8CF80916C00811117CF80
:1016000040E460E870E060DAA7D969EA70E055D993
:1016100082E05FDAEFEFFBE722E9E150F0402040A3
:10162000E1F700C0000003CFC233D0F440E460E82B
:1016300070E080E049DA49E067E770E083E144DA8E
:1016400010929C0064D9FC0193E0A5EAB0E00190FF
:101650000D929A95E1F768D969EA70E02ED90BCF1F
:10166000C0E00BCF8FEF93ECA9E081509040A040F9
:10167000E1F700C00000DC2FF0CE1092790158CFC6
:101680009FEFA9E6B8E19150A040B040E1F700C05B
:101690000000FACE00937601E0E8E0937701E9E4F8
:1016A000F1E08FE720E031919581438594239323E6
:1016B000318993239F3F29F08F3719F4822F62EFEE
:1016C00002D42F5F263079F780937601EFE4F1E0C2
:1016D0009CE220E8829136818323348583233289FA
:1016E00083238F3F19F0203809F4292F925F903817
:1016F00089F7209377018091750190E00196209100
:101700007901820F911D079721F4D11102C0109326
:101710007C0080917A0090917B0029E030E0291BC9
:1017200031098217130611F00CF0C3C08F5F80934C
:101730007A0080E0CED981E090914601911180E05D
:101740008093460190E080E0FC01E75BFE4F30E0D3
:1017500020812B3014F02FEF20832191283024F0AA
:10176000DF0111972F5F2C933F5F363089F7069684
:101770008831910549F780914801D0908000ED2C87
:10178000F12C8031E9F06091470192EF980F92308F
:1017900058F46D1548F09701225F3F4F621713060A
:1017A00009F014F410937C008695863009F0BBC0D4
:1017B00081E0F7D7882309F4B6C080E1809348011F
:1017C00080914501883831F082508D3E0CF4AFC0D5
:1017D00080934501809178018A51833050F4809143
:1017E0007901823031F480917A01843011F40093D0
:1017F00045012C2F30E0C7010296821793074CF465
:10180000C9018E199F0963E070E083D3D60ED09290
:10181000800040918000842F90E0BC0162507109EB
:101820002617370744F4821B930B6DEF7FEF71D3BC
:10183000460F4093800080917C00813009F4E0C025
:101840008091720190917B01891708F074C08F5FBD
:101850008093720180E8EBD7845F91408A3F9105C5
:1018600018F4CC3608F4CA5F8A5F9109883C910568
:1018700018F4C63008F0C650FCD8892B79F4A2E0E1
:101880007A120CC064E088EC01D986E080936E0186
:10189000809180008A5F80936F01712C80916E012E
:1018A0008F3F09F057CE22E0721609F453CE73949D
:1018B00051CE10927A0016D14B015C0113D16B010D
:1018C0007C0180914801803109F033CFC501B4011A
:1018D00023E030E040E050E094D1B62EC701B601DD
:1018E000A20191018ED1262F8B2D90E066E070E051
:1018F000F3D28B5B9E4FFC01E20FF11D84818F3F81
:1019000009F417CF90917801995F822F6EE0DBD2B6
:10191000890F8093470180917901B80EBB0CB39475
:10192000B092480106CF809148018F5F47CF98E879
:10193000909345014FCF83E08093750123E0822F80
:1019400090E066E070E0C8D2FC01E75BFE4F90E0FB
:1019500081918F3F29F49F5F9630D1F72150EFCFCF
:10196000209375018091710161E08127809371015D
:10197000811110C084E68AD88091780190917C0111
:10198000913011F590917701891734F48E5F80932F
:1019900078010DC088ECEFCF80917A01873060F438
:1019A0008C5F883038F480937A0110927C01109219
:1019B000720150CF87E0F7CF809179018F5F8093DC
:1019C000790110927A01F1CF90917601981714F471
:1019D0008250DDCF80917A01873050F48C5F88305F
:1019E00028F480937A0110937C01E1CF87E0F9CF4E
:1019F000809179018F5F8093790110927A01F3CF02
:101A000061E080E543D861E084E640D8DF5FDE3105
:101A100008F444CFBFEFEBE4FDE1B150E040F0400B
:101A2000E1F700C000008091750190E001962091DF
:101A30007901820F911D079709F48BCC80917D006D
:101A4000882309F486CC815080937D007ECD8F92CF
:101A50009F92AF92BF92CF92DF92EF92FF92CF937D
:101A6000DF93EC01688179818A819B816115710521
:101A70008105910521F464E279ED8BE597E02DE194
:101A800033EF41E050E0BDD049015A0127EA31E48B
:101A900040E050E09DD06B017C012CEE34EF4FEF25
:101AA0005FEFC501B40194D0C60ED71EE81EF91E23
:101AB000F7FE06C081E0C81AD108E10880E8F80AFC
:101AC000C882D982EA82FB82C701B6019F77DF9183
:101AD000CF91FF90EF90DF90CF90BF90AF909F900D
:101AE0008F9008958F929F92AF92BF92CF92DF9284
:101AF000EF92FF9260916D0070916E0080916F0087
:101B000090917000611571058105910521F464E2E1
:101B100079ED8BE597E02DE133EF41E050E071D0B6
:101B200049015A0127EA31E440E050E051D06B010D
:101B30007C012CEE34EF4FEF5FEFC501B40148D0CC
:101B4000C60ED71EE81EF91EF7FE06C081E0C81AB1
:101B5000D108E10880E8F80AC0926D00D0926E00CA
:101B6000E0926F00F0927000C701B6019F77FF907E
:101B7000EF90DF90CF90BF90AF909F908F9008959F
:101B800060936D0070936E0080936F00909370006F
:101B90000895FB01DC0102C005900D9241505040B8
:101BA000D8F70895E199FECF9FBB8EBBE09A9927A5
:101BB0008DB30895262FE199FECF1CBA9FBB8EBB33
:101BC0002DBB0FB6F894E29AE19A0FBE01960895E4
:101BD000EE27FF27AA27BB2708C0A20FB31FE41FC9
:101BE000F51F220F331F441F551F96958795779534
:101BF000679598F37040A9F7009799F7BD01CF0159
:101C00000895052E97FB16F400940FD057FD05D0CC
:101C100014D007FC02D046F408C05095409530958A
:101C200021953F4F4F4F5F4F089590958095709548
:101C300061957F4F8F4F9F4F0895A1E21A2EAA1BE7
:101C4000BB1BFD010DC0AA1FBB1FEE1FFF1FA2176C
:101C5000B307E407F50720F0A21BB30BE40BF50B69
:101C6000661F771F881F991F1A9469F760957095F2
:101C7000809590959B01AC01BD01CF01089550580E
:101C8000BB27AA270ED0E5C0D6D030F0DBD020F09D
:101C900031F49F3F11F41EF4CBC00EF4E095E7FB46
:101CA000C1C0E92FE7D080F3BA1762077307840732
:101CB000950718F071F49EF5FFC00EF4E0950B2E19
:101CC000BA2FA02D0B01B90190010C01CA01A0018E
:101CD0001124FF27591B99F0593F50F4503E68F1E9
:101CE0001A16F040A22F232F342F4427585FF3CF2A
:101CF000469537952795A795F0405395C9F77EF4FB
:101D00001F16BA0B620B730B840BBAF09150A1F043
:101D1000FF0FBB1F661F771F881FC2F70EC0BA0FC9
:101D2000621F731F841F48F4879577956795B79551
:101D3000F7959E3F08F0B3CF9395880F08F0992749
:101D4000EE0F97958795089504D06894B111B5C0AA
:101D5000089598D088F09F5790F0B92F9927B751E0
:101D6000A0F0D1F0660F771F881F991F1AF0BA955F
:101D7000C9F712C0B13081F09FD0B1E008959CC086
:101D8000672F782F8827B85F39F0B93FCCF3869555
:101D900077956795B395D9F73EF4909580957095B2
:101DA00061957F4F8F4F9F4F0895E89409C097FB2F
:101DB0003EF490958095709561957F4F8F4F9F4F22
:101DC0009923A9F0F92F96E9BB279395F695879566
:101DD00077956795B795F111F8CFFAF4BB0F11F429
:101DE00060FF1BC06F5F7F4F8F4F9F4F16C08823D0
:101DF00011F096E911C0772321F09EE8872F762F06
:101E000005C0662371F096E8862F70E060E02AF046
:101E10009A95660F771F881FDAF7880F9695879532
:101E200097F9089597F99F6780E870E060E008955A
:101E30009FEF80EC089500240A94161617061806E2
:101E40000906089500240A941216130614060506BE
:101E50000895092E0394000C11F4882352F0BB0F4F
:101E600040F4BF2B11F460FF04C06F5F7F4F8F4FB2
:101E70009F4F089557FD9058440F551F59F05F3FED
:101E800071F04795880F97FB991F61F09F3F79F09C
:101E900087950895121613061406551FF2CF46951E
:101EA000F1DF08C0161617061806991FF1CF8695A0
:101EB0007105610508940895E894BB276627772784
:101EC000CB0197F90895002480FD060E660F11F0EE
:101ED0008695D1F7802D08950024552704C0080E5B
:101EE000591F880F991F009729F076956795B8F3C9
:101EF0007105B9F7802D952F0895991B79E004C0DD
:101F0000991F961708F0961B881F7A95C9F7809538
:101F1000089597FB072E16F4009406D077FD08D09D
:101F20000BD007FC05D03EF4909581959F4F089506
:101F3000709561957F4F0895AA1BBB1B51E107C0A7
:101F4000AA1FBB1FA617B70710F0A61BB70B881F49
:101F5000991F5A95A9F780959095BC01CD010895D8
:101F6000DC0101C06D9341505040E0F70895F894B2
:021F7000FFCFA1
:101F72001027E80364000A000100000001010000CC
:021F820000005D
:00000001FF
